{"abi":[{"type":"constructor","inputs":[{"name":"_beneficiary","type":"address","internalType":"address"},{"name":"_token","type":"address","internalType":"address"}],"stateMutability":"nonpayable"},{"type":"function","name":"beneficiary","inputs":[],"outputs":[{"name":"","type":"address","internalType":"address"}],"stateMutability":"view"},{"type":"function","name":"cliffEnd","inputs":[],"outputs":[{"name":"","type":"uint64","internalType":"uint64"}],"stateMutability":"view"},{"type":"function","name":"releasable","inputs":[],"outputs":[{"name":"","type":"uint256","internalType":"uint256"}],"stateMutability":"view"},{"type":"function","name":"release","inputs":[],"outputs":[],"stateMutability":"nonpayable"},{"type":"function","name":"released","inputs":[],"outputs":[{"name":"","type":"uint256","internalType":"uint256"}],"stateMutability":"view"},{"type":"function","name":"seed","inputs":[{"name":"amount","type":"uint256","internalType":"uint256"}],"outputs":[],"stateMutability":"nonpayable"},{"type":"function","name":"start","inputs":[],"outputs":[{"name":"","type":"uint64","internalType":"uint64"}],"stateMutability":"view"},{"type":"function","name":"token","inputs":[],"outputs":[{"name":"","type":"address","internalType":"contract IERC20"}],"stateMutability":"view"},{"type":"function","name":"totalAllocation","inputs":[],"outputs":[{"name":"","type":"uint256","internalType":"uint256"}],"stateMutability":"view"},{"type":"function","name":"vestedAmount","inputs":[{"name":"timestamp","type":"uint64","internalType":"uint64"}],"outputs":[{"name":"","type":"uint256","internalType":"uint256"}],"stateMutability":"view"},{"type":"function","name":"vestingEnd","inputs":[],"outputs":[{"name":"","type":"uint64","internalType":"uint64"}],"stateMutability":"view"},{"type":"event","name":"Released","inputs":[{"name":"amount","type":"uint256","indexed":false,"internalType":"uint256"},{"name":"to","type":"address","indexed":false,"internalType":"address"}],"anonymous":false},{"type":"event","name":"Seeded","inputs":[{"name":"amount","type":"uint256","indexed":false,"internalType":"uint256"}],"anonymous":false},{"type":"error","name":"AlreadySeeded","inputs":[]},{"type":"error","name":"NotBeneficiary","inputs":[]},{"type":"error","name":"NothingToRelease","inputs":[]},{"type":"error","name":"ZeroAmount","inputs":[]}],"bytecode":{"object":"0x610120604052348015610010575f80fd5b50604051610a00380380610a0083398101604081905261002f9161014c565b6001600160a01b03821661007a5760405162461bcd60e51b815260206004820152600d60248201526c062656e65666963696172793d3609c1b60448201526064015b60405180910390fd5b6001600160a01b0381166100ba5760405162461bcd60e51b81526020600482015260076024820152660746f6b656e3d360cc1b6044820152606401610071565b6001600160a01b0380831660a05281166080526001600160401b03421660c0526100e862278d00600c610191565b60c0516100f591906101ae565b6001600160401b031660e05261010f62278d006018610191565b60e05161011c91906101ae565b6001600160401b031661010052506101cd9050565b80516001600160a01b0381168114610147575f80fd5b919050565b5f806040838503121561015d575f80fd5b61016683610131565b915061017460208401610131565b90509250929050565b634e487b7160e01b5f52601160045260245ffd5b80820281158282048414176101a8576101a861017d565b92915050565b6001600160401b0381811683821601908111156101a8576101a861017d565b60805160a05160c05160e051610100516107b161024f5f395f818161011c0152818161024001526102de01525f8181610166015281816101fd0152818161028601526102bd01525f6101a901525f818160d501528181610339015281816103cf01526104c301525f81816101d801528181610400015261057e01526107b15ff3fe608060405234801561000f575f80fd5b50600436106100a6575f3560e01c80639130297b1161006e5780639130297b146101615780639556483714610188578063961325211461019b578063be9a6555146101a4578063fbccedae146101cb578063fc0c546a146101d3575f80fd5b80630a17b06b146100aa57806338af3eed146100d057806379203dc41461010f57806384a1931f1461011757806386d1a69f14610157575b5f80fd5b6100bd6100b8366004610681565b6101fa565b6040519081526020015b60405180910390f35b6100f77f000000000000000000000000000000000000000000000000000000000000000081565b6040516001600160a01b0390911681526020016100c7565b6100bd5f5481565b61013e7f000000000000000000000000000000000000000000000000000000000000000081565b60405167ffffffffffffffff90911681526020016100c7565b61015f61032e565b005b61013e7f000000000000000000000000000000000000000000000000000000000000000081565b61015f6101963660046106af565b610518565b6100bd60015481565b61013e7f000000000000000000000000000000000000000000000000000000000000000081565b6100bd610665565b6100f77f000000000000000000000000000000000000000000000000000000000000000081565b5f7f000000000000000000000000000000000000000000000000000000000000000067ffffffffffffffff168267ffffffffffffffff16101561023e57505f919050565b7f000000000000000000000000000000000000000000000000000000000000000067ffffffffffffffff168267ffffffffffffffff16106102805750505f5490565b5f6102ab7f0000000000000000000000000000000000000000000000000000000000000000846106da565b67ffffffffffffffff1690505f6103027f00000000000000000000000000000000000000000000000000000000000000007f00000000000000000000000000000000000000000000000000000000000000006106da565b67ffffffffffffffff16905080825f5461031c9190610700565b6103269190610717565b949350505050565b336001600160a01b037f000000000000000000000000000000000000000000000000000000000000000016146103775760405163644d871f60e01b815260040160405180910390fd5b5f610380610665565b9050805f036103a25760405163b10205ed60e01b815260040160405180910390fd5b8060015f8282546103b39190610736565b909155505060405163a9059cbb60e01b81526001600160a01b037f000000000000000000000000000000000000000000000000000000000000000081166004830152602482018390525f917f00000000000000000000000000000000000000000000000000000000000000009091169063a9059cbb906044016020604051808303815f875af1158015610448573d5f803e3d5ffd5b505050506040513d601f19601f8201168201806040525081019061046c9190610749565b9050806104b25760405162461bcd60e51b815260206004820152600f60248201526e1d1c985b9cd9995c8819985a5b1959608a1b60448201526064015b60405180910390fd5b604080518381526001600160a01b037f00000000000000000000000000000000000000000000000000000000000000001660208201527f4d436de77f1139fda664b657c73ad6c3bde4a1984d3aabeab7c3998556b93b6391015b60405180910390a15050565b5f5415610538576040516308627e3960e31b815260040160405180910390fd5b805f0361055857604051631f2a200560e01b815260040160405180910390fd5b5f8181556040516323b872dd60e01b8152336004820152306024820152604481018390527f00000000000000000000000000000000000000000000000000000000000000006001600160a01b0316906323b872dd906064016020604051808303815f875af11580156105cc573d5f803e3d5ffd5b505050506040513d601f19601f820116820180604052508101906105f09190610749565b9050806106355760405162461bcd60e51b81526020600482015260136024820152721d1c985b9cd9995c919c9bdb4819985a5b1959606a1b60448201526064016104a9565b6040518281527ffe8b095e1a768e83a862933c32f2bd9b62b7b87f8fc8843d83ccce205208b6569060200161050c565b5f600154610672426101fa565b61067c9190610768565b905090565b5f60208284031215610691575f80fd5b813567ffffffffffffffff811681146106a8575f80fd5b9392505050565b5f602082840312156106bf575f80fd5b5035919050565b634e487b7160e01b5f52601160045260245ffd5b67ffffffffffffffff82811682821603908111156106fa576106fa6106c6565b92915050565b80820281158282048414176106fa576106fa6106c6565b5f8261073157634e487b7160e01b5f52601260045260245ffd5b500490565b808201808211156106fa576106fa6106c6565b5f60208284031215610759575f80fd5b815180151581146106a8575f80fd5b818103818111156106fa576106fa6106c656fea2646970667358221220cad1222bc0f3950e4fa1d49b331a320e443e6c2130aadd5510d2fea30bdb27d064736f6c634300081a0033","linkReferences":{}},"methodIdentifiers":{"beneficiary()":"38af3eed","cliffEnd()":"9130297b","releasable()":"fbccedae","release()":"86d1a69f","released()":"96132521","seed(uint256)":"95564837","start()":"be9a6555","token()":"fc0c546a","totalAllocation()":"79203dc4","vestedAmount(uint64)":"0a17b06b","vestingEnd()":"84a1931f"},"id":22}